:020000040800F2
:1000000078060020790200088102000883020008B7
:10001000850200088702000889020008000000002D
:100020000000000000000000000000008B0200083B
:100030008D020008000000008F02000891020008F5
:10004000930200089302000893020008930200083C
:10005000930200089302000893020008930200082C
:10006000930200089302000893020008930200081C
:10007000930200089302000893020008930200080C
:1000800093020008930200089302000893020008FC
:1000900093020008930200089302000893020008EC
:1000A00093020008930200089302000893020008DC
:1000B00093020008930200089302000893020008CC
:1000C00093020008930200089302000893020008BC
:1000D00093020008930200089302000893020008AC
:1000E000930200089302000893020008930200089C
:1000F000930200089302000893020008930200088C
:10010000930200089302000893020008930200087B
:10011000930200089302000893020008930200086B
:10012000930200089302000893020008930200085B
:1001300000F002F800F090F80AA090E8000C824469
:100140008344AAF10107DA4501D100F085F8AFF246
:10015000090EBAE80F0013F0010F18BFFB1A43F0A5
:10016000010318476439000084390000103A24BFA5
:1001700078C878C1FAD8520724BF30C830C144BF0C
:1001800004680C607047000000230024002500264E
:10019000103A28BF78C1FBD8520728BF30C148BFEA
:1001A0000B6070476E2900F04683702900F091843F
:1001B000662903F03883652903F03583672903F046
:1001C00032836129AFF3008003681B0A28BF41F026
:1001D0008001692900F0BA80642900F0B780752990
:1001E00000F0B4806F2900F01F84782900F05D844E
:1001F000E92900F0B983E42900F0B683F52900F07D
:10020000B383EF2900F01C84F82900F05C840368B4
:10021000DB0928BF41F08001632900F0568773296C
:1002200000F05B87E32900F06687F32900F06B8715
:10023000002070471FB500F057FA0400002000218D
:1002400003F07EF9401C60600020002103F08EF96D
:10025000E0601FBD10B510BD01F028F81146FFF792
:10026000E9FF03F0F9F801F055FB03B4FFF7F2FFE3
:1002700003BC01F07BFD00000948804709480047A6
:10028000FEE7FEE7FEE7FEE7FEE7FEE7FEE7FEE746
:10029000FEE7FEE704480549054A064B70470000A3
:1002A000A130000831010008780000207806002005
:1002B000780200207802002010B500F015FA001D29
:1002C00010BD00BF7D3200007CB51D4616460C00F7
:1002D000009001D02044401E074B7B442A466946CB
:1002E0000190304600F0C1FA05461CB10020694675
:1002F00000F0CEFA28467CBDBD05000070B504466E
:1003000085690068C10601D5302600E02026C007B7
:1003100007D070BDD4E9012130469047206A401CC7
:1003200020626D1EF6D570BD70B5044685690078F3
:10033000C00707D170BDD4E9012120209047206A71
:10034000401C20626D1EF6D570BD00002DE9F04105
:100350000646002410687529314616A510D000F015
:10036000D6F9002802DA404213A507E031688A076F
:1003700001D512A502E0490704D511A5012401E029
:1003800000F0CEF900210A2206F1240709E0B0FBB3
:10039000F2FCB0FBF2F302FB1C003030785418463C
:1003A000491C0028F3D123462A463046BDE8F041D7
:1003B00000F0E8B9000000002D0000002B00000054
:1003C000200000002DE9F05F894604464FF0000A46
:1003D000DFF874B1FB44C0F820A02046E1688847EC
:1003E000002874D0252806D0D4E901219047206A3E
:1003F000401C2062F1E700265F462046E1688847FE
:100400002028054607DB312D05D2781910F8200C7D
:1004100008B10643F1E7B00701D526F00406C4F899
:100420001CA00027C4F818A02A2D09D0284602F0E5
:1004300090FF38B304EB8708303DC8F8185019E036
:1004400059F8041B204604EB87029161E168884754
:10045000012F054618D1E069002820DA26F0200691
:100460001DE0D8F8180000EB800005EB40003038A4
:10047000C8F818002046E1688847054602F069FF81
:100480000028EED1012F0AD02E2D08D12046E16898
:1004900088477F1C0546022F46F02006C4DBA06972
:1004A000002803DA404246F00106A061F00701D0BF
:1004B00026F010066C2D0BD0682D09D04C2D39D0AC
:1004C0006A2D35D0742D35D07A2D33D016E038E032
:1004D000E1682F4620468847B842054609D16C2F6F
:1004E00026D04FF48060E1680643204688470546E1
:1004F00004E06C2F1AD04FF4807006430DB3A5F1C1
:100500004100192802D8203546F400664A4629469B
:10051000204626604E46FFF745FE80B101280BD0ED
:10052000F61D26F0070000F1080956E74020E4E731
:100530008020D8E70020D6E706F104094DE72846D9
:1005400052E7206ABDE8F09F1836000070B50646F5
:1005500000F0CEF80468054630460A22002100F07B
:1005600013FB2C6070BD10B5431C02E010F8011B9A
:1005700071B18107FAD14FF0013202C88C1A8C4355
:1005800014EAC211F9D0C01A0A0603D0C01E10BD69
:10059000C01A10BD0A0401D0801E10BD0902FCD093
:1005A000401E10BD032A40F2308010F0030C00F012
:1005B000158011F8013BBCF1020F624498BF11F89D
:1005C00001CB00F8013B38BF11F8013BA2F1040256
:1005D00098BF00F801CB38BF00F8013B11F00303CE
:1005E00000F02580083AC0F0088051F8043B083A32
:1005F00051F804CBA0E80810F5E7121D5CBF51F8D4
:10060000043B40F8043BAFF30080D20724BF11F84D
:10061000013B11F801CB48BF11F8012B24BF00F8B2
:10062000013B00F801CB48BF00F8012B704710B523
:10063000203AC0F00B80B1E81850203AA0E81850DA
:10064000B1E81850A0E81850BFF4F5AF5FEA027C9B
:1006500024BFB1E81850A0E8185044BF18C918C00A
:10066000BDE810405FEA827C24BF51F8043B40F8AB
:10067000043B08BF7047D20728BF31F8023B48BF90
:1006800011F8012B28BF20F8023B48BF00F8012BCE
:1006900070474FF0000200B5134694469646203945
:1006A00022BFA0E80C50A0E80C50B1F12001BFF42B
:1006B000F7AF090728BFA0E80C5048BF0CC05DF891
:1006C00004EB890028BF40F8042B08BF704748BFDF
:1006D00020F8022B11F0804F18BF00F8012B704753
:1006E0007047704770470000004870473400002092
:1006F000004870471400002010B5FFF7F9FF0068AC
:1007000010BD10B50446FFF7F3FF046010BD096883
:100710004A0501D540B27047C905FCD500B2704703
:1007200009684A0501D5C0B27047C905FCD580B239
:10073000704770B50C460546012A05D0287880061A
:1007400000D5EA69002302E0012305E05B1C934227
:1007500002D2E05C0028F9D1A869E618C01AA861A5
:10076000286A184428622846FFF7C8FD04E0D5E946
:10077000012114F8010B9047B442F8D32846FFF743
:10078000D3FD70BD2DE9F0470D46994692460446CB
:1007900000F124080168880604D5E06921F0100101
:1007A000216000E00120A84201DD471B00E0002796
:1007B000A1697A1902EB0900081AA0612078C00625
:1007C00002D42046FFF79AFD002608E0D4E9012173
:1007D0001AF806009047206A401C761C20624E459D
:1007E000F4DB2078C0060AD52046FFF787FD06E037
:1007F000D4E9012130209047206A401C2062381E35
:10080000A7F10107F4DC07E0D4E9012118F805009D
:100810009047206A401C2062281EA5F10105F3DCE8
:100820002046FFF781FD2078000602D50220BDE8B2
:10083000F0870120FBE711680268006A530501D5C3
:1008400008700AE0D30501D5088006E0130603D539
:10085000C217C1E9000200E00860012070470000F3
:1008600001694A1C02610878704700B58FB0CDE974
:1008700001310021059105497944CDE90310114664
:100880006846FFF79FFD0FB000BD0000E5FFFFFFCA
:100890000A6802F8010B0A607047D1E900239A4206
:1008A00002D2531C0B601070704700002DE9FF5FEF
:1008B00015468A460446DFF8AC80F8440027D8E99C
:1008C00000103E46CDE9001010E03AF816106A46D6
:1008D00002A800F08BFC411C07D02178890603D5C3
:1008E000E269391891420DD80744761C20788006B9
:1008F00002D5E069B84205DDAE42E6DB3AF8160003
:100900000028E2D1A069C01BA0612046FFF7F6FCD9
:10091000D8E90010CDE90010002017E03AF81810CF
:100920006A4602A800F062FCB0F1FF3F81460BD09E
:1009300000250DF1080B05E0D4E901211BF80500A5
:1009400090476D1C4D45F7D308F10100B042804639
:10095000E4DB206A384420622046FFF7E5FCBDE86E
:10096000FF9F0000463100002DE9F0418046D21D76
:1009700022F007020025D2E90002F52915A614D0BD
:10098000011E72F1000106DA0023D0EB030063EBD5
:10099000020211A608E0D8F800108B0701D50FA6B7
:1009A00002E0490701D50EA601251146002408F1F1
:1009B000240704E000F024F930323A55641C50EA70
:1009C0000102F7D12B46324621464046BDE8F041B0
:1009D000FFF7D8BE000000002D0000002B00000033
:1009E0002000000030B4002100F1240408E002F0EF
:1009F0000705D208303542EA4372DB086554491CCA
:100A000052EA0305F3D10468002310A2250708D594
:100A100004F020040C4304D0C46901230CA2641E1A
:100A2000C46130BCFFF7AEBE10B504462146106865
:100A3000FFF776FE02462046BDE810400023D1E7CE
:100A4000D21D22F00701D1E90023CBE7000000000E
:100A500030000000F0B40D460188090502D5214C94
:100A60007C4402E01F4C7C440E34002100F124063B
:100A700008E002F00F071209E75D42EA03721B0962
:100A80007754491C52EA0307F3D102780023120776
:100A900004D5702D06D009B1022311342246F0BCD2
:100AA000FFF770BE01231034F8E770B504460D4619
:100AB00021461068FFF734FE024629462046BDE86D
:100AC00070400023C6E7D21D22F00703D3E90023BC
:100AD000C0E70368126843F0200303600823C36182
:100AE0000023B7E7A82F00000FB4002300B589B09A
:100AF0000CA900910B99CB60204B7B440693204BB3
:100B00007B44079304236FF00042CDE901321D4A74
:100B10007A446B4608920246002002F0E6FE09B0D5
:100B20005DF814FB70B506464FF0FF3015460C46D5
:100B3000324686B00091CDE901016946002004905B
:100B400004A8FFF7D1FF03460498211825B108B186
:100B50000A4600E022462A6000280DD0002B02DD64
:100B60000098884208D03246081B69460094CDE9B7
:100B7000010404A8FFF7B8FF06B070BD110600001D
:100B800029060000770100002DE9F04791460F4645
:100B900080460446002614F8015B2DB1FFF78CFB5C
:100BA0000068405DC007F6D12B2D02D02D2D18D046
:100BB000641E4A463946204600F0C9FA27B1396812
:100BC000A14201D1C7F800804FF0020471050BD596
:100BD0004042002803DDFFF78BFD0460A007BDE85D
:100BE000F08746F48066E4E70028F8DAFFF780FD36
:100BF00004606FF00040F2E70048704714000020E6
:100C000030B5B0F10A024FEA900E71F100034EEADE
:100C1000817EB0EB0E0061EB91014FEA101E4EEAAF
:100C2000017E10EB0E0041EB11114FEA102E4EEA3F
:100C3000016E10EB0E0041EB11214FEA104E4EEA0F
:100C4000014E10EB0E0041EB1141401841F1000143
:100C50004FEAD00040EA41704FEAD10110EB800525
:100C60004FEA810444EA907444EB01046D1944EBAB
:100C70000404521BA3414FF0000348BF0A3200D5C1
:100C800030BD401C41F1000130BD10B50446FFF7F6
:100C900013FB0068005D00F0010010BD70472DE9F6
:100CA000FF4F0C461E464FF0FF378BB0D2E90001D4
:100CB000DDF860800A908A46C1F30A5505B93D46C1
:100CC000002108464FF00000BAF1000F00F4400088
:100CD00005DA00EB80004FF4400101EA50004FEAD2
:100CE0009059B9F1010F00DDB9460A9850EA4A005F
:100CF0000ED044F61050A5F2FF3545432F14B8F13D
:100D0000000F1ED07542291E1EDDC9F100021CE035
:100D1000B8F1010F4FF0000001D0302103E0F243A1
:100D200005E02154401CB042FBDB3046002200218C
:100D300021540B99C1F80880C1E900200FB0BDE82B
:100D4000F08FBD1B6D1CDEE74A4600DA694206A83B
:100D500000F072FD06AB93E8070003AB83E80700E1
:100D600050460A9901F01CF88DE80700A0F50050E4
:100D70001F3800900398002D09DD42F21F014A46FA
:100D8000084403A90390684601F0A5FA08E0A0F51D
:100D900000504A461F3803A90390684601F0C3FA81
:100DA0008DE807000004000C03D04FF0FF3041082D
:100DB00000E01046B8F1000F03D000220092154663
:100DC0001EE0751E05D4FFF71BFF303262556D1E05
:100DD000F9D5B3460122084302D000227F1C04E06B
:100DE0002078302801D100227F1E002A099786D062
:100DF0001DE0112D07DAFFF703FF303262556D1C3D
:100E000050EA0102F5D1084302D00098C8B10EE0C3
:100E10000021681E05E0235C625C63542254401E7E
:100E2000491C8142F7DBAB46A81B401E09900020FD
:100E300004F80B000B98099AC0F80880C0E9002B51
:100E40007CE711264FF0000859E72DE9F04F88465E
:100E50000446D21D22F0070191B0D1E90001CDE98D
:100E60000A0102F0FBF902460B98C00F01D02D20B9
:100E700007E02068810701D52B2002E0202101EA4C
:100E8000C000032A099001D0072A05DB034641462A
:100E9000204600F031FA0BE12078800601D5E069A8
:100EA00000E00620B8F1650F814606D0B8F1660F64
:100EB00018D0B8F1670F70D131E00020B9F1110FEF
:100EC000009001DB112301E009F101030AAA01A945
:100ED0000CA8FFF7E4FEDDE90C70002609F101051E
:100EE000834647E001204B4600904FF000470AAA96
:100EF00001A90CA8FFF7D3FEDDE90DB00C995D4602
:100F0000002610B909F101000D18B9EB050003D452
:100F1000C0F1FF3609F10105A5EB09002BE0B9F19D
:100F2000010F01DA4FF001090020B9F1110F009013
:100F3000484601DD112300E003460AAA01A90CA8D6
:100F4000FFF7ADFEDDE90C704D46002683462078A4
:100F500000070AD4AB4500DA5D4601A8012D04DD87
:100F6000411911F8011C302907D04F4502DA17F159
:100F7000040F04DA012082460FE06D1EEEE7002F19
:100F800002DCED1B3E4403E0781CA84200DD7D1C22
:100F9000B81B00F1010A4FF000472078000703D486
:100FA000AA4501DB4FF0FF3A0021B7F1004F0DF1E8
:100FB00043088DF8431024D002202B23002F01DAA0
:100FC0007F422D230A21021EA0F1010000DC5FB147
:100FD00097FBF1FC97FBF1F201FB1C7C17460CF12F
:100FE000300C08F801CDEEE7A8F10100037021886C
:100FF000090501D5452100E06521A0F1010800F8AF
:10100000011C09980FA9A1EB0807FF1D00B10120E1
:10101000411901EBEA70A1693844081A401EA06129
:101020002078C00602D42046FFF768F9099828B155
:10103000D4E901219047206A401C20622078C00634
:1010400022D52046FFF75AF91EE0002E04DBB345F7
:1010500002DD01A8805D00E03020D4E90121904745
:10106000206A401C2062761CAAF101005FEA000A97
:101070000AD1FFF739FBC0680168405CD4E901215F
:101080009047206A401C2062281EA5F10105DCDC87
:1010900007E0D4E9012118F8010B9047206A401CB1
:1010A0002062381EA7F10107F3DC2046FFF73CF968
:1010B000032011B043E610B5436913B1AFF30080CC
:1010C00001E0FFF736FB012010BD127800F124018A
:1010D0000A7000224A700122EDE711684FF0FF32DA
:1010E000E9E710B5436913B1AFF3008001E0FFF702
:1010F000DDFB012010BD128800F124018284002252
:10110000C2840122EDE711684FF0FF32E9E742683F
:1011100042B1016811F8013B23B1521EC0E900122F
:10112000184670470121C160881E704742685AB155
:10113000C368016843B983688B4205D0491E521CBD
:10114000C0E90012002070474FF0FF3070472DE9D2
:10115000F05F824615468B4600270AF10104B94626
:101160000078302801D09DB113E014F8010B01275D
:10117000782803D0582801D045B10AE00DB1102DD0
:1011800007D1002714F8010B102502E0082500E024
:101190000A250026B0460EE005FB080005FB06F117
:1011A00001271FFA80F801EB1046B6F5803F00D307
:1011B000B94614F8010B294600F0DEF80028EBDAF6
:1011C000BBF1000F05D00FB1641E00E05446CBF810
:1011D0000040B9F1000F06D0FFF78AFA0221016042
:1011E000C81EBDE8F09F48EA0640FAE770B516460B
:1011F0000C460546FFF760F8036893F801010128E3
:1012000006D0FF2C0FD8185D68B101202C7070BD7E
:10121000D3F807013246214603F207130344284658
:10122000BDE8704018474FF0FF3070BD4FF0013CF3
:1012300050F8042B51F8043B9A4221D1A2EB0C0345
:10124000934313EACC1317D150F8042B51F8043B05
:101250009A4215D1A2EB0C03934313EACC130BD1A2
:1012600050F8042B51F8043B9A4209D1A2EB0C032D
:10127000934313EACC13DBD04FF00000704700BF5C
:10128000D01A01BAB1FA81F101F0180122FA01F085
:10129000CB40C1F12001DBB2C0B2C01A2CFA01F37D
:1012A000D11A914311EAC311E6D170477546FFF791
:1012B000A3FCAE4605006946534620F0070085466C
:1012C00018B020B5FEF7E6FFBDE820404FF000065D
:1012D0004FF000074FF000084FF0000B21F007011E
:1012E000AC46ACE8C009ACE8C009ACE8C009ACE861
:1012F000C0098D46704700002DE9F0411F460446A5
:1013000003260168072A01F4006004DB08B116A572
:1013100005E016A503E008B115A500E015A521F02C
:1013200010002060A069C01EA0610FB1401EA06126
:101330002046FEF7E3FF4FB1D4E90121384690473C
:10134000206A401C2062C01C206206E0206AFAE786
:10135000D4E9012115F8010B9047761EF8D22046FA
:10136000FEF7E2FFBDE8F0814E414E006E616E0077
:10137000494E4600696E66003A2800D2303820F0A7
:101380002002412A01D3A2F13700884201D34FF055
:10139000FF3070472DE9FF4F064689B00878FF28D7
:1013A00006D0491C2D2805D000244FF0000908E084
:1013B00000200CE00124F8E709EB8903491C00EB4D
:1013C00043090878FF28F7D114B1C9F1000081461C
:1013D000107800252C46AA4629462D2801D02B2816
:1013E00004D1521C2D2813D0002082468B46107841
:1013F000FF280FD04FF0000C0A21521CA5FB0178EA
:1014000004FB018105FB0C11C5194BEB0104EEE750
:101410000120EAE7002108464FF00000BAF1000F72
:1014200002D000EB80004008C0F38158B8F1010FF2
:1014300001DD4FF0FF380C9809EB000755EA040076
:1014400009D04FF0020917F5FA7F0BDA4FEACA709C
:10145000C6E900B012E04FEACA70C6E900B00DB0AC
:10146000BDE8F08FB7F5FA7F0DDDF0487844D0E99C
:101470000010C6E9001040EACA707060FFF738F942
:10148000C0F80090EBE7391E02DAC8F1000200E074
:10149000424600DA794206A800F0CEF906AB93E89E
:1014A000070003AB83E8070044F23E005BEA040157
:1014B0000090584604D144F21E012C465D4600912E
:1014C000210C0904014306D10099240444EA15447F
:1014D0002D041039009104F07F41014306D1009999
:1014E000240244EA15642D020839009104F0704189
:1014F000014306D10099240144EA15742D01091F06
:10150000009104F04041014306D10099A40044EA4F
:101510009574AD00891E009104F00041084304D188
:1015200000986D196441401E009042466846002FA5
:10153000CDE9014503A902DD00F009FF01E000F05B
:10154000DEFEBAF1000F04460D4601D084F00044DF
:1015500040F2FF7724F00040284303D0C4F30A5040
:10156000B84212D1FFF7C4F8C0F80090C4F30A5093
:10157000B8420AD1AE487844D0E90010C6E900105C
:1015800004F000410843706069E7C6E9005466E76B
:101590002DE9FF4F1F464FF0000A4FF0FF38454638
:1015A00091B0D7E90146CDF83CA0FFF79DF8C0689F
:1015B0000168405C1090B96912986D1C8847396ABF
:1015C000814688470028F6D1B9F1FF3F0AD0002EA6
:1015D00024F4D06411DDB9F12B0F08D0B9F12D0F2F
:1015E0000BD102E0404615B03AE744F48064B96993
:1015F00012986D1C8847761E8146600504A901D5A6
:101600002D2000E02B20002E01F1010B0DF1300800
:101610008DF810003FDDB9F1690F08D0B9F1490F1D
:1016200005D0B9F16E0F02D0B9F14E0F1CD13B4677
:1016300001A8009580E85002DDE912126FF0020067
:1016400002F057F9C11CCED10EE0B96912986D1C99
:10165000884781461398761E44F4007405600F98FD
:10166000401C002E0F9016DDB9F1300FEDD0B9F10E
:10167000780F02D0B9F1580F0DD10F9801280AD177
:101680003B46CDE90054DDE91212001F029602F03C
:101690002EF9C11CA7D1109989453ED144F0800490
:1016A00006E01399681CAAF1010A44F4007408606A
:1016B000B9696D1C1298761E884730288146F0D093
:1016C0002BE01099894505D1200603D4761E44F0FD
:1016D000800418E0484601F03CFE08B3761E0DF188
:1016E00023018B4544F4007408D2A9F130000BF8B3
:1016F000010B200607D5AAF1010003E0200602D461
:101700000AF101008246A00502D51399681C086001
:10171000B96912986D1C88478146002ED1DC53E0D0
:10172000002E51DDB9F1650F02D0B9F1450F4BD153
:10173000A00549D5B9696D1C1298761E24F4407431
:101740008847002E81460CDD2B2804D0B9F12D0FDF
:1017500007D144F48074B96912986D1C8847761ECD
:101760008146E00501D52D2100E02B2108F8011B61
:10177000CDF8008021E0761E0DF13901884544F452
:1017800000740CD2A9F1300010F0FF0088F80000BE
:1017900002D10099884509D908F1010806E0E00561
:1017A00001D5244801E042F20F708246B9691298CF
:1017B0006D1C8847814613980560002E04DD48465D
:1017C00001F0C7FD0028D6D1F96912988847FF209B
:1017D00053468BF8000088F8000000200A900B9018
:1017E00004AA0CA90AA8FFF7D5FDA00502D46FF042
:1017F0000100F8E614F0240F0AD0E00714D138688D
:10180000DDE90A12031D3B600068C0E900120BE02D
:101810000AA9684601F046FDE00705D13868009A3C
:10182000011D3960006802602846DCE67826000069
:101830006E250000F1D8FFFF2DE9F04781461646DE
:101840008AB0334878440DC88DE80D00304878449C
:10185000801C03AC0DC884E80D0041F69B300844A1
:10186000372190FBF1F290FBF1F5A5F1800501FB2A
:1018700012041B3C02D56442012000E00020DFF886
:1018800090A080460027FA44AAF1BE0A0DE0E007C6
:1018900009D03246684607EB47010AEB810100F0A8
:1018A00042FD8DE8070064107F1C002CEFD1184F1B
:1018B0007F44AC3F18E0E80714D007EB04100DF1AB
:1018C000180A90E80E008AE80E00C068F04201D1C4
:1018D00098190890324606A903A800F024FD03AB2E
:1018E00083E807006D10641C002DE4D13246694680
:1018F000B8F1000F03A802D000F0EDFC01E000F009
:1019000012FDC9E90001C9F808200AB0BDE8F08756
:10191000682200000446AFF300802046FEF7A5FCD5
:101920002DE9FF4F1F464FF03C0987B04FF00042B2
:10193000DDE9141001F10108DDF858A002EA405079
:101940000390002004908346054604460590B9693B
:10195000461E08988847AAF1010A0290BAF1000FC2
:1019600037DD02982E2815D01021FFF705FD00283D
:101970002ADB4FF0010B0499014316D0B9F1000F97
:101980000BDB4A46C11700F0F8F905430C43A9F1F7
:10199000040905E00120059007E008B145F00105C4
:1019A00001200490059800B9361DB969089808F11E
:1019B00001088847BBF1000FAAF1010A0290CDD0BF
:1019C0000999C1F80080C9E70298702808D050280A
:1019D00006D0F96908988847BBF1000F14D04FE092
:1019E000002002900120BBF1000F049009D0B969DA
:1019F000089808F101088847AAF10109B9F1000F18
:101A000007DCF969089888476FF001000BB0BDE862
:101A1000F08F2B2804D02D280CD14FF0FF300490EC
:101A2000B969089808F101088847A9F10109B9F1D5
:101A3000000FE6DD411CE4D00A21FFF79DFC0028E1
:101A4000DFDB029908F1010801EB810100EB4100A5
:101A50000290B969089888470A21FFF78DFC099A16
:101A6000A9F10109B9F1000FC2F8008001DD0028D9
:101A7000E7DAF969089888470499029800FB01663B
:101A800055EA040004D004F04041090002D006E009
:101A9000039898E0A40044EA9574AD00B61E04F0E3
:101AA0000041080002D16D196441761E159810F0AE
:101AB000240F03D04FF00B095C4803E04FF02809D6
:101AC0006FF07D008246564507DAAAEB060189448D
:101AD000B9F1410F01DD4FF0410901200021A9F1C9
:101AE000010200F04AF9024628400B462140084313
:101AF00001D0012100E00021501E029143F1FF318D
:101B000028402140084301D0012000E00020029934
:101B1000834651EA0B014FD0002108464FF00000E8
:101B2000039900F4400039B100EB80004FF440010C
:101B300000EBD07001EA60008015012802DD4FF053
:101B4000FF3000E013D0401C36D0029860B3BBF1E8
:101B5000000F0CD14A460120002100F00EF9284068
:101B60002140084301D0012000E00020E0B1012025
:101B70004A46002100F001F9034640190A46614136
:101B80002D1A8C4111D3B9F1400F09DD159810F0D1
:101B9000240F02D0AAF1340603E0AAF1170600E0F0
:101BA000761C00254FF0004406E05B1E42F1FF3238
:101BB00020EA030521EA0204CAF10100B04206DA74
:101BC0001B49039808430190002000900EE0039AFF
:101BD000C4F3D321E80A0A43164940EA44500A43B1
:101BE0003146CDE90002684601F0A8FB159810F0D7
:101BF000240F0BD01598C00715D13868DDE9001205
:101C0000031D3B600068C0E900120CE002A86946B1
:101C100001F048FB1598C00705D13868029A011DEC
:101C20003960006802604046F0E6000002FCFFFFF9
:101C30000000F07F0000F03F2DE9FF4F92461D4667
:101C400085B04FF00041DDE9124BDDE914727F1ED3
:101C500001EA4B50414940F0FF4940EA01080021A8
:101C600022F020004928049102D04E2828D04CE0D0
:101C70003BA0012607C88DE80700A9690698641CE7
:101C800088477F1E014606D41DF8060018B121F0D2
:101C9000200181420BD0E96906988847032E34D091
:101CA000082E32D06FF0010009B0BDE8F08F761C2D
:101CB000032E01D0082EE0D1601CCAF80000DCE73A
:101CC000A9690698641C88477F1E2AD420F020004A
:101CD000412826D1A9690698641C88477F1E20D414
:101CE00020F020004E281CD1A9690698641C884762
:101CF0007F1E48F4002849F48009CAF8004001D446
:101D0000282806D0E969069888475FEACB7012D088
:101D100022E0A9690698641C88477F1E01D4002828
:101D200003DAE96906988847BCE72928F1D1641CE1
:101D3000CAF80040E9E71BF0240F07D0286804998F
:101D4000031D2B600068C0E9001805E02868021D2B
:101D50002A600068C0F800902046A5E70000F07FE8
:101D6000494E46494E495459000000000149182087
:101D7000ABBEFEE7260002007047B2F120030AD591
:101D8000C2F1200301FA02F120FA03F300FA02F093
:101D900041EA0301704700FA03F14FF00000704779
:101DA0005FEA400C08BF91F0000F4FEA8C234FEA26
:101DB000C12243EA51514FEA1C5018BF00F5F040D0
:101DC0004FEA300018BF41F000415FEA6C5C00F060
:101DD0002980BCF1FF3F08BF40F080407047130CE2
:101DE00006BF12044FF0100C4FF0000C130E04BF8E
:101DF00012020CF1080C130F04BF12010CF1040CB9
:101E0000930F04BF92000CF1020CD30F04BF5200D9
:101E10000CF1010C11464FF00002A0F11F00A0EBE5
:101E20000C00704711F0004F08BF704731F00041BF
:101E30003FF4D5AF0B0C06BF09044FF0100C4FF068
:101E4000000C0B0E04BF09020CF1080C0B0F04BFB1
:101E500009010CF1040C8B0F04BF89000CF1020C7A
:101E6000CB0F04BF49000CF1010CCCF12003A0EB17
:101E70000C0022FA03F302FA0CF241EA030100F12A
:101E80000100704720F07F4C80EA030023F07F4779
:101E9000ACEB070303F57C5300F0004003F1FF03B4
:101EA0002DE980494FEA154B09B44FEA144325EA5E
:101EB0000B4E24EA03480FF2042606EB13274908C9
:101EC0003E785FEA320203FB0667C7F5000707FBAF
:101ED00006F64FEA54374FEAD64606F1020607FBEC
:101EE000066CCCF1005C4FEA1C472CEA074C07FB60
:101EF00006F40CFB06F504EB15464FEA961634BFC4
:101F000000204FF000404FEAD13706FB07FC4FEAB4
:101F10001C4C0CFB0BF7D21B03FB0CF761EB07010E
:101F20000CFB0EF7B0EB074072EB17420CFB08F707
:101F300034BFA2EB0742B2EB074261EB17414FEA15
:101F40000C444FEA910706FB07FC4FEA1C4C0CFBC4
:101F50000BF7B0EBC74072EB573203FB0CF734BF03
:101F6000A2EBC742B2EBC74261EB57310CFB0EF755
:101F7000B0EBC70072EB57720CFB08F734BFA2EB53
:101F8000C702B2EBC70261EB5771039F4FEA816151
:101F900041EA921104EBCC044FEAD1374FEA826256
:101FA00006FB07FC42EA90124FEA80604FEA1C4CA5
:101FB0000CFB0BF7D21B03FB0CF761EB07010CFBCF
:101FC0000EF7B0EB074072EB17420CFB08F734BF7B
:101FD000A2EB0742B2EB074261EB17414FEA8C5587
:101FE0004FEA910704EB9C2406FB07FC4FEA1C4CCC
:101FF0000CFB0BF7B0EBC74072EB573203FB0CF74F
:1020000034BFA2EBC742B2EBC74261EB57310CFBC6
:102010000EF7B0EBC70072EB57720CFB08F734BF3A
:10202000A2EBC702B2EBC70261EB577115EB4C256F
:102030004FEA816141EA92114FEA82624FEAD13759
:1020400042EA901206FB07FC44F100044FEA80606C
:102050004FEA1C4C0CFB0BF7D21B03FB0CF761EB9C
:1020600007010CFB0EF7B0EB074072EB17420CFBBD
:1020700008F734BFA2EB0742B2EB074261EB17410E
:1020800015EB1C154FEA813141EA92414FEA823249
:1020900042EA90424FEA80304FEA0C7644F1000465
:1020A00048EA03434EEA0B484FF0000EB2EB080C2F
:1020B00071EB030724BF624639464EEB0E0E4FF01C
:1020C000000B0018524149414BEB0B0BB2EB080CD3
:1020D00071EB03077BF1000B24BF624639464EEBE0
:1020E0000E0E4FF0000B0018524149414BEB0B0B09
:1020F000B2EB080C71EB03077BF1000B24BF6246C7
:1021000039464EEB0E0E51EA020718BF46F00106A3
:1021100016EB0E7655F1000254F1000103D5BDE82F
:102120008901BDE80088BDE88901BDE80048B6190D
:10213000524141EB0101A3F10103704780807F7E92
:102140007D7C7B7A7978777676757473727171702D
:102150006F6E6E6D6C6C6B6A6A69686867666665DF
:102160006464636362616160605F5F5E5E5D5D5C6D
:102170005C5B5B5A5A5959585857575656555555DE
:102180005454535352525251515050504F4F4F4E3E
:102190004E4D4D4D4C4C4C4B4B4B4A4A4A4949498C
:1021A00048484847474747464646454545444444CE
:1021B00044434343434242424241414146EA064688
:1021C000A3F570534FEA164646EA42564FEAD2222A
:1021D00042EA415210B54FEAD121A3F1010300F0C8
:1021E00017F820F0004000F1010C00F0004701EB6F
:1021F00000501146BCF5006F40EA070000D210BD48
:1022000002484FF0000140EA070010BD0000F07FD7
:10221000002B26D4770021D01CB54FEA370703B432
:102220004FF010004FF010014FF000000FBCBDE860
:1022300010400BF1010BBBF1010F08BF5FEA17075C
:1022400022BF12F1010211F101014FF0004143F1EF
:10225000000300F0004043EA00007047F9D357083C
:10226000DAE746EA064613F1400F4FEA16461FDD4D
:1022700013F1200FDFBF16430A46002120335B42D3
:10228000C8D0C3F1200746EA064602FA07F74FEA2C
:10229000164646EA0706C3F1200722FA03F201FABE
:1022A00007F721FA03F14FF0000342EA0702B1E712
:1022B00046EA020646EA06464FEA164646EA01069E
:1022C000BCBF46EA0646360C4FF000034FF0000252
:1022D0004FF000019EE72DE9C048934630B491E8E5
:1022E000380007C831EA400C48BF34EA430C03D534
:1022F000FFF7C8FDFFF78CFFF0BCBDE800882DE9B3
:10230000C048934630B491E8380007C831EA400C21
:1023100048BF34EA430C03D5FFF7B4FDFFF74EFF87
:10232000F0BCBDE800882DE9C048934630B491E880
:10233000380007C810F0804F08BF13F0804F03D15A
:1023400000F019F8FFF764FFF0BCBDE800882DE944
:10235000C048934630B491E8380007C810F0804F69
:1023600008BF13F0804F03D100F005F8FFF726FFF8
:10237000F0BCBDE8008820F07F4780EA030023F02E
:102380007F4C07EB0C03A3F57C5300F00040A3F156
:10239000FE0392F0000F00F0B38095F0000F00F004
:1023A00077802DE901494FEA11404FEA144621EAAE
:1023B000004800FB06FC24EA064708FB06F607FB7C
:1023C00008F800FB07F718EB06484CEB164C4FEAF1
:1023D000124B18EB07484FEA15464CEB174022EA20
:1023E0000B4E0BFB06FC25EA06470EFB06F607FB29
:1023F0000EFE0BFB07F71EEB064E4CEB164C4FF098
:1024000000061EEB074E4CEB174B18EB0B0840F188
:10241000000018EB0E0B58EB000840F100008F1A7B
:102420004FF000013CBFC943661B14BFB5EB040C61
:1024300000213CBFC943F61B4FEA17444EEA8E0EFB
:1024400027EA04454FEA1C4704FB07622CEA074CC5
:1024500005FB07F70CFB05F604FB0CFC16EB074627
:1024600042EB174216EB0C4642EB1C421BEB0606F6
:1024700058EB0202414146EA9E0601D5BDE80189BA
:10248000B619524141EB0101A3F10103BDE80189F5
:102490004FEA14454FEA114724EA054621EA074C62
:1024A00005FB07F406FB07F70CFB06F105FB0CFC2C
:1024B00011EB074144EB17444FEA124711EB0C4173
:1024C00044EB1C4422EA074C05FB07F206FB07F726
:1024D0000CFB06F605FB0CFC16EB074642EB17421D
:1024E00016EB0C4642EB1C456A1854F1000148BF3C
:1024F0007047B619524141EB0101A3F10103704746
:1025000095F0000F37D04FEA11424FEA144721EA05
:10251000024624EA074C02FB07F106FB07F70CFB17
:1025200006F402FB0CFC14EB074441EB17414FEAA5
:10253000154714EB0C4441EB1C4125EA074C02FB08
:1025400007F506FB07F70CFB06F602FB0CFC16EB87
:10255000074645EB174516EB0C4645EB1C42121996
:1025600051F1000148BF7047B619524141EB0101DA
:10257000A3F1010370474FEA14454FEA114724EADB
:10258000054621EA074C05FB07F106FB07F70CFBA4
:1025900006F24FF0000605FB0CFC12EB074241EB84
:1025A000174112EB0C4251EB1C4148BF7047921887
:1025B00041EB0101A3F1010370472DE9F04102460F
:1025C00000250026002000230024002791F803C0E6
:1025D0000CF00F0591F803C00CF0100CBCF1000FCB
:1025E00003D091F802C04CEA050591F800C0BCF197
:1025F000000F31D0146800202BE04FF0010C0CFAD2
:1026000000F3B1F800C00CEA03069E4220D183001B
:102610004FF00F0C0CFA03F7BC4305FA03FC4CEA2D
:10262000040491F803C0BCF1280F06D14FF0010C4F
:102630000CFA00FCC2F814C00AE091F803C0BCF127
:10264000480F05D14FF0010C0CFA00FCC2F810C085
:10265000401C0828D1D31460B1F800C0BCF1FF0FB2
:1026600034DD546800202EE000F1080C4FF0010822
:1026700008FA0CF3B1F800C00CEA03069E4221D11F
:1026800083004FF00F0C0CFA03F7BC4305FA03FC70
:102690004CEA040491F803C0BCF1280F05D100F105
:1026A000080C08FA0CF8C2F8148091F803C0BCF1C9
:1026B000480F07D100F1080C4FF0010808FA0CF898
:1026C000C2F81080401C0828CED35460BDE8F081C9
:1026D000F0B595B005460F461446002013901490AF
:1026E000284600F06BF80646012E44D100E06D1C30
:1026F00028782428FBD104F1880104F1800204F138
:10270000780304F17000CDE9103212910F90203956
:10271000203A203B2038CDE90C320E910B90203925
:10272000203A203B2038CDE908320A910790203921
:10273000203A1838283BCDE90330CDE9052110387F
:10274000211D13AB0DA2CDE9004102903946284668
:1027500000F05EF8142801D000260CE09DF84E0031
:10276000472807D19DF84F00532803D19DF850000A
:10277000562800D00026304615B0F0BD242535730C
:102780002C25642C25642C25642C25642C25662C92
:1027900025662C25662C25642C25662C25662C2583
:1027A000662C25642C25662C25662C25662C256434
:1027B0002C25662C25662C25662A000078B5034654
:1027C000002600E05B1C18782428FBD11878242808
:1027D0001CD100245B1C02E0187844405B1C187874
:1027E0002A28F9D1581C034600788DF80000581C9F
:1027F000034600788DF8010000208DF8020068463D
:1028000000F028F9C5B2AC4200D10126304678BDAF
:102810000FB42DE9F04F9BB00446894604EB090A3A
:10282000002734210EA8FDF734FF342101A8FDF75D
:1028300030FF4FF0010B00E0641C2078242803D007
:10284000207808B15445F7D32078242803D126985E
:102850000078242800D0F5E027A80090641C269872
:10286000401C2690E8E0BBF1010F09D0BBF1020F3C
:1028700015D0BBF1030F18D0BBF1040F0ED148E007
:1028800026980078252802D14FF0020B06E0269802
:1028900000782178884200D0D4E0641CC8E04FF072
:1028A000000800264FF0030B00BFFDF705FD006890
:1028B00026990978405C202805D12698007801A93E
:1028C0008855761CB4E04FF0040B002001A9885510
:1028D000002E0EDD01A8FDF739FE80464246214656
:1028E0000EA8FDF75FFE00200EA901F80800444481
:1028F0000EE0002604E020780EA98855641C761CA2
:1029000020782C2801D05445F5D300200EA98855F5
:1029100000BF2698007865286FD012DC532832D08B
:1029200008DC43281FD0452868D0462864D04728B3
:1029300079D165E058284ED0632813D0642872D12D
:1029400035E06F2845D006DC662854D0672856D07D
:10295000692868D12CE0732814D0752838D07828DD
:1029600061D137E000BF009820C800900EA8FDF7A5
:10297000FAFD18B19DF83800287001E00020287099
:102980007F1C51E000BF009820C800900EA8FDF702
:10299000EAFD5FEA000806D008F101020EA9284608
:1029A000FDF700FE01E0002028707F1C3CE000BF26
:1029B000009820C800900EA8FDF7D5FD20B10EA804
:1029C000FDF7C4FD286001E0002028607F1C2BE09B
:1029D00000BF00BF00BF009820C800900EA8FDF700
:1029E000C2FD20B10EA8FDF7B1FD286001E0002076
:1029F00028607F1C18E000BF00BF00BF00BF00BF01
:102A0000009820C800900EA8FDF7ADFD30B10EA8CB
:102A100000F0A6FCC5E9000103E004E00021296004
:102A200069607F1C00E00DE000BF4FF0010B00BFAC
:102A300000BF2698401C26902698007800287FF436
:102A400012AF00BF0020009038461BB0BDE8F00F69
:102A50005DF814FB0146002000E0491C0A78302A8A
:102A6000FBDB0A78392A02DD0A78412AF5DB0A788D
:102A7000462A02DD0A78612AEFDB0A78662AECDC56
:102A80000A78302A06D14A78782A02D04A78582A19
:102A900000D1891C1EE000010A78302A06DB0A7882
:102AA000392A03DC0A78303A104412E00A78612AA5
:102AB00006DB0A78662A03DB0A78573A104408E0F6
:102AC0000A78412A05DB0A78462A02DC0A78373A76
:102AD0001044491C0A78302A02DB0A78392ADADDE8
:102AE0000A78612A02DB0A78662AD4DA0A78412A4F
:102AF00002DB0A78462ACEDD70470FB470B5ADF51B
:102B0000027D064600254FF4007102A8FDF7C1FDC5
:102B100088A8019040F2FD1102A8019B879AFDF759
:102B2000D3FB0546002405E002A8015D304600F015
:102B300067F9641CAC42F7DB0020019000BF402124
:102B4000304600F0E9FA0028F9D028460DF5027D5C
:102B500070BC5DF814FB000038B504460D465948BA
:102B600084421CD1012144F2040000F0ABF920158D
:102B7000ADF8000004208DF8030003208DF802005A
:102B800069465148FFF719FD6015ADF8000018209F
:102B90008DF8030069464C48FFF70FFD89E04B486C
:102BA00084421FD10121042000F08CF90121480446
:102BB00000F078F90820ADF8000004208DF803003B
:102BC00003208DF8020069463F48FFF7F6FC042019
:102BD000ADF8000018208DF8030069463A48FFF769
:102BE000ECFC66E03A4884421FD10121082000F045
:102BF00069F90121880400F055F9E014ADF80000EE
:102C000004208DF8030003208DF802006946314846
:102C1000FFF7D3FC2015ADF8000018208DF8030055
:102C200069462C48FFF7C9FC43E02B4884421FD17A
:102C30000121102000F046F90121C80400F032F90A
:102C4000E014ADF8000004208DF8030003208DF897
:102C5000020069462148FFF7B0FC2015ADF80000DE
:102C600018208DF8030069461C48FFF7A6FC20E0F9
:102C70001B4884421DD10121302000F023F901219D
:102C8000080500F00FF90420ADF800008DF80300EE
:102C900003208DF8020069461248FFF78EFCA0144D
:102CA000ADF8000018208DF8030069460D48FFF7C5
:102CB00084FC2946204600F061FA0121204600F0FC
:102CC0001FFA38BD003801400008014000440040B0
:102CD00000480040000C0140004C00400010014042
:102CE00000500040001401402DE9F84305460C4611
:102CF00016461F46DDF82080304600F0C9F83B48F4
:102D0000854203D125208DF800001DE0384885421A
:102D100003D126208DF8000016E03648854203D105
:102D200027208DF800000FE03348854203D134207E
:102D30008DF8000008E03148854203D135208DF838
:102D4000000001E0BDE8F88301208DF803008DF854
:102D500001708DF80280684600F062F804F004000B
:102D600028B1012240F22771284600F0E2F904F070
:102D7000080028B1012240F22661284600F0D9F966
:102D800004F0100028B1012240F22551284600F03D
:102D9000D0F904F0200028B1012240F22441284655
:102DA00000F0C7F904F0010028B1012240F66A11D1
:102DB000284600F0BEF904F0020028B1012240F6D6
:102DC0004601284600F0B5F904F0400020B1012288
:102DD0002821284600F0ADF904F0800020B101223E
:102DE0006021284600F0A5F900BFABE7003801409C
:102DF0000044004000480040004C004000500040AB
:102E000070B504460D462946204600F023FA00BF5F
:102E10008021204600F080F90028F9D070BD000024
:102E200070B5002100230F22C47804B3154C246828
:102E300004F4E064C4F5E064210AC1F10403CA406B
:102E4000447804FA03F184781440214309010E4CBC
:102E50000678A155047804F01F050124AC400578DC
:102E60006D11AD0005F1E025C5F8004109E00478D9
:102E700004F01F050124AC40044D0678761145F896
:102E8000264070BD0CED00E000E400E080E100E0D1
:102E900002490143024A1160704700000000FA0530
:102EA0000CED00E029B1064AD2690243044BDA6115
:102EB00004E0034AD2698243014BDA6170470000A3
:102EC0000010024029B1064A92690243044B9A61FC
:102ED00004E0034A92698243014B9A617047000003
:102EE0000010024030B500210022002400232D4DA7
:102EF0006D6805F00C0121B1042905D0082923D102
:102F000005E0294D056022E0274D05601FE0254DB5
:102F10006D6805F47012234D6D6805F48034022548
:102F200005EB92421CB9214D554305600BE01D4D48
:102F30006D6805F400351DB11C4D5543056002E078
:102F4000194D5543056002E0174D056000BF00BFF5
:102F5000144D6D6805F0F0010909154D6B5C0568AD
:102F6000DD4045600F4D6D6805F4E061090A104DC4
:102F70006B5C4568DD4085600A4D6D6805F4605105
:102F8000C90A0B4D6B5C4568DD40C560054D6D6839
:102F900005F44041890B074D6B5CC568B5FBF3F543
:102FA000056130BD0010024000127A0000093D00AA
:102FB000000000201000002010B500F001F810BD46
:102FC0000CB50020019000903348006840F4803038
:102FD0003149086000BF3048006800F400300090BC
:102FE0000198401C0190009818B90198B0F5A06FA5
:102FF000F1D12948006800F4003010B101200090A0
:1030000001E0002000900098012843D12348006887
:1030100040F01000214908600846006820F00300D5
:1030200008600846006840F0020008601A484068DE
:10303000194948600846406848600846406840F4BE
:10304000806048600846406820F47C10486008466C
:10305000406840F4E81048600846006840F080701E
:10306000086000BF0C48006800F000700028F9D02C
:103070000948406820F00300074948600846406856
:1030800040F00200486000BF0348406800F00C00B8
:103090000828F9D10CBD00000010024000200240B9
:1030A00010B51348006840F0010011490860084657
:1030B0004068104908400E494860084600680E49BB
:1030C00008400B4908600846006820F4802008602A
:1030D0000846406820F4FE0048604FF41F008860F6
:1030E000FFF76AFF4FF000600449086010BD000060
:1030F000001002400000FFF8FFFFF6FE08ED00E0C0
:1031000021B1828942F40052828104E082894DF625
:10311000FF731A408281704702460020B1F5007F9C
:1031200000D100BF13880B400BB1012000E000204C
:103130007047F0B50346002400260025002040F625
:103140006A17B94200D100BF1846C1F3421401F01A
:103150001F06012707FA06F5012C01D10C3004E007
:10316000022C01D1103000E014301AB107682F434F
:10317000076002E00768AF430760F0BD2DE9F04744
:1031800086B005460E460024A24600BFA146002791
:10319000B08900B100BF2F462C8A4CF6FF70044066
:1031A000F08804432C82AC894EF6F3100440B088BA
:1031B00031890843718908430443AC81AC8A4FF6D6
:1031C000FF400440B0890443AC8201A8FFF78AFEA7
:1031D0001F48874202D1DDF810A001E0DDF80CA005
:1031E000A88900F4004040B10AEBCA0000EB0A10C5
:1031F00031684900B0FBF1F807E00AEBCA0000EBC8
:103200000A1031688900B0FBF1F86420B8FBF0F0D7
:1032100004012009642101FB1089A88900F4004001
:1032200040B1322000EBC900B0FBF1F000F0070024
:10323000044308E0322000EB09106421B0FBF1F0F8
:1032400000F00F0004432C8106B0BDE8F0870000B9
:1032500000380140C1F3080282807047490050EAFB
:10326000C12018BF04204A0D18BF40F0010040F2F1
:10327000FF72B2EB515F08BF40F00200012808BFA7
:103280000520704740F2013200204FF0E04100F08D
:10329000FEBA0000024A0020110700F0F8BA000050
:1032A00001FDFFFF10B50446D1E9000100F002F86E
:1032B000206010BDF8B504460D466A4600F066F879
:1032C00000987E30009000281FDC00221346204624
:1032D000294600F0A7F918D0002140F608004FF069
:1032E000000006462046294600F056F9044640F6FE
:1032F000080006EA00014FF0000034F0004004BF6F
:103300000220FDF7FEF92046F8BD0098FF280DDBEE
:103310000220FDF7F6F9002213462046294600F068
:1033200047FA8CBF04484FF0FF40F8BD20462946BD
:10333000BDE8F84000F030B9000080FF10B5044649
:103340000A46D4E90003194600F04CF8C4E900012C
:1033500010BD30380A2801D2012070470020704784
:1033600030B583B00446FDF7C7F905460020CDE926
:103370000000024621466846FDF7D4FB2846FDF7CB
:10338000C0F9DDE9000103B030BD000010B51446FE
:1033900000222260114A21F000439342A8BF10BDD1
:1033A00053EA000208BF10BDB3F5801FA8BF226812
:1033B00007DA362200F06BFA6FF0350221F0004395
:1033C0002260DFF81CC06FF31E510CEB23531A442C
:1033D00041F0FF5141F00051226010BD0000F07F2C
:1033E00002FCFFFF2DE9F04106460C4640F2FF7556
:1033F000174635EA14502BD000221346304600F011
:1034000011F925D03A463046214600F040FA0646EA
:103410000C4635EA145010D000221346304600F016
:1034200001F915D10220FDF76CF9FFF733FF0A46C9
:10343000214662F31E01BDE8F0810220FDF761F92B
:10344000FFF720FF0A46214662F31E01BDE8F08126
:1034500030462146BDE8F08130B5DDB0C8221E49B6
:1034600006A8FDF7E4F84FF4E13002900020ADF833
:1034700014000C20ADF812000020ADF81000ADF8DB
:103480000E00ADF80C0002A91448FFF765FB002000
:1034900003460246302100901048FFF725FC104AF1
:1034A000104B11A10D48FFF728FB164A16A10B4837
:1034B000FFF723FB1AA21DA10848FFF71EFB06A871
:1034C000FDF751F8054638AA294606A8FFF700F986
:1034D000044600205DB030BD2839000800380140A6
:1034E000756B7E54346F9D4155534152545F426118
:1034F000756452617465203D20252D31352E356669
:103500000D0A000015CD5B0755534152545F4261CF
:10351000756452617465203D20256C640D0A0000BD
:103520003132333435363738390000005072696E25
:103530007420737472696E672025730D0A00000091
:1035400010B500290AD00878002807D0054878442B
:10355000FDF76CFE002801D0002010BD0248784421
:1035600010BD0000A20500009A05000010B500295A
:103570000AD00878002807D005487844FDF756FEA1
:10358000002801D0002010BD0248784410BD000082
:10359000860600007E06000021F00042A2F1605283
:1035A000B2F5801F01F0004328BFD2F17F6C0BD928
:1035B0005FEA001C43EAC20242EB507018BF70473A
:1035C00028BF20F001007047B2F5801FBCBF18462D
:1035D00070474FEA410C1CF5001F02D2084600F06C
:1035E0001DB970B500F096F800000089FFF7F6BF2E
:1035F0004FF00040A0F580007047000002494FF0F6
:10360000000000F012B900BF0000F87F491058BF59
:10361000C1F140415B1058BFC3F140438B42EFF30F
:103620000080704751EA030C17D41CF5801F58BF67
:10363000BCF5801F00F10680994218BF704708BF93
:103640009042704707D711F5801F58BF13F5801FB0
:1036500019D499427047894270471CF5801F08D5DC
:10366000BCF5801FF7D58B4218BF704708BF824258
:1036700070474FF4001C1CEB410F38BF1CEB430F8D
:1036800001D28B42704770B500F044F89224490093
:103690004FF000514FF08053FFF7B8BF51EA030CD1
:1036A00017D41CF5801F58BFBCF5801F00F10680A1
:1036B000994218BF704708BF9042704707D711F56D
:1036C000801F58BF13F5801F19D499427047894253
:1036D00070471CF5801F08D5BCF5801FF7D58B42BD
:1036E00018BF704708BF824270474FF4001C1CEBA4
:1036F000410F38BF1CEB430F01D28B42704770B5AE
:1037000000F008F8922449004FF000514FF0805328
:10371000FFF77CBF0EF1020E2EF0030E5EF8046B75
:10372000364205D4012A43EB030515F5001F12D8D4
:10373000012841EB010C1CF5001F0CD80ED14FEAFB
:10374000D17C15F5001F0CEB4C0C0CF1020C08BFE2
:103750004CEBD37C04E04FF0080C01E04FEAD37C43
:103760000CEB4C0526FA05F606F00706B6F1040C3C
:1037700006D20EEB860CBDE870404CF0010C6047A1
:10378000DFE80CF0090B02024FF000414FF000009F
:10379000A1F5002170BD19461046012851EB010426
:1037A00018BFD4F5001484BF002001F0004170BDA3
:1037B00053EA010C17D41CF5801F58BFBCF5801FBD
:1037C00000F106808B4218BF704708BF82427047E5
:1037D00007D713F5801F58BF11F5801F19D48B42EE
:1037E00070479B4270471CF5801F08D5BCF5801FB1
:1037F000F7D5994218BF704708BF904270474FF401
:10380000001C1CEB430F38BF1CEB410F01D2994247
:1038100070470FB40CBC03BCFFF771BFFF2141EA36
:10382000D050C0057047FDF710BB0CF00F03092BFB
:1038300008BF082000F05F800A2B0BD0082B18BFB0
:10384000704708BF1CF0400F0AD04FF000004FF047
:10385000000170471CF0400F18BF4FF00040704748
:103860001CF0100F08D020F0704300F07F4242EAB5
:10387000D3014FEA4370704700F0604021F07F426F
:1038800042EA000201F07F4040EA727070474FF058
:10389000FF0C4CF4E06C1CEA11531CBF9CEA030CB7
:1038A0009445C2BFDA4201EB02517047002B0DD0A4
:1038B000BCF1000F0FD0002A01F00041A4BF41F07D
:1038C000E04141F07F614FF00000704701F000419E
:1038D0004FF00000704750EA01334FF09B0C18BFC7
:1038E0004CF0806C7FF48AAE7047FDF751BEFEF756
:1038F00017B8FEF7A1B91CF4801F11D01CF4E02FFB
:1039000003D06FEACC31490070474FF04050EFF3DD
:10391000008222F0704242EA000282F3008870477F
:103920004FF00000704700002447504753562C3397
:103930002C312C31312C3139332C36392C3039396A
:103940002C33302C31372C36322C3335342C333663
:103950002C30362C34372C3237322C2C30332C345C
:10396000302C3035342C33302A3445000000000030
:103970000000000000000000000000000000000047
:103980000000000000000000000000000000000037
:103990000000000000000000000000000000000027
:1039A0000000000000000000000000000000000017
:1039B0000000000000000000000000000000000007
:1039C00000000000000000000000000000000000F7
:1039D00000000000000000000000000000000000E7
:1039E00000000000000000000000000000000000D7
:1039F00004000008000000000000000200010000B8
:103A000010000000000000000000000030313233E0
:103A10003435363738394142434445464030580002
:103A20003031323334353637383961626364656634
:103A30004030780002400000000000A000000000BC
:103A400005400000000000C8000000000C4000001D
:103A50000000409C00000000194000000020BCBE97
:103A60000000000034400000BFC91B8E00000004AD
:103A7000B5400000504BCFD06607E2CF01000000F8
:103A80006C4100003E8251AADFEEA7340100000025
:103A9000D9420000DCB5A0E23A301F97FFFFFFFFDC
:103AA000B4450000FD25A0C8E9A3C14FFFFFFFFFFB
:103AB000FF3F00000000008000000000FF3F00000A
:103AC00000000080000000001C3C000800000020F6
:103AD000140000006C010008303C000814000020B5
:103AE0006406000088010008000000000000F07F6C
:103AF0001001000043000000F8FFFFFF00404040BD
:103B000040404040404041414141414040404040B0
:103B1000404040404040404040404040400502025C
:103B2000020202020202020202020202022020201B
:103B30002020202020202002020202020202909077
:103B40009090909010101010101010101010101075
:103B500010101010101010100202020202028888C9
:103B600088888888080808080808080808080808D5
:103B700008080808080808080202020240000000BD
:103B80000000000000000000000000000000000035
:103B90000000000000000000000000000000000025
:103BA0000000000000000000000000000000000015
:103BB0000000000000000000000000000000000005
:103BC00000000000000000000000000000000000F5
:103BD00000000000000000000000000000000000E5
:103BE00000000000000000000000000000000000D5
:103BF00000000000000000000000000000000000C5
:103C00001C00000043000000F8FFFFFF0C00000054
:103C10000E0000000F0000002E0000000000000059
:103C2000010203040102030406070809020406084E
:0400000508000131BD
:00000001FF
